:020000040800F2
:100000008004002001010008770200086F02000848
:100010007302000849010008670A00080000000098
:10002000000000000000000000000000650600085D
:100030004D010008000000006D050008E9070008F8
:100040001B0100081B0100081B0100081B01000820
:100050001B0100081B0100081B0100081B01000810
:100060001B0100081B0100081B0100081B01000800
:100070001B0100081B0100081B0100081B010008F0
:100080001B0100081B0100081B0100081B010008E0
:100090001B0100081B0100081B0100081B010008D0
:1000A0001B0100081B0100081B0100081B010008C0
:1000B0001B0100081B0100081B0100081B010008B0
:1000C0001B0100081B0100081B0100081B010008A0
:1000D0001B0100084D0800081B0100081B01000857
:1000E0001B0100081B0100081B010008DFF80CD0F1
:1000F00000F018F800480047890A00088004002032
:100100000648804706480047FEE7FEE7FEE7FEE7B1
:10011000FEE7FEE7FEE7FEE7FEE7FEE7ED07000885
:10012000ED000008064C074D06E0E06840F00103D2
:1001300094E8070098471034AC42F6D3FFF7DAFF93
:10014000940A0008B40A000800BFFEE770472DE9D2
:10015000F04102460025002600200023002400274D
:1001600091F803C00CF00F0591F803C00CF0100CCF
:10017000BCF1000F03D091F802C04CEA050591F8DC
:1001800000C0BCF1000F31D0146800202BE04FF00C
:10019000010C0CFA00F3B1F800C00CEA03069E4211
:1001A00020D183004FF00F0C0CFA03F7BC4305FA83
:1001B00003FC4CEA040491F803C0BCF1280F06D1FB
:1001C0004FF0010C0CFA00FCC2F814C00AE091F8E0
:1001D00003C0BCF1480F05D14FF0010C0CFA00FC34
:1001E000C2F810C0401C0828D1D31460B1F800C078
:1001F000BCF1FF0F34DD546800202EE000F1080C44
:100200004FF0010808FA0CF3B1F800C00CEA03063D
:100210009E4221D183004FF00F0C0CFA03F7BC4330
:1002200005FA03FC4CEA040491F803C0BCF1280F62
:1002300005D100F1080C08FA0CF8C2F8148091F806
:1002400003C0BCF1480F07D100F1080C4FF00108C2
:1002500008FA0CF8C2F81080401C0828CED354606D
:10026000BDE8F0810AB1016100E04161704700BF63
:10027000FEE700BFFEE7704708B54FF4A06101F04C
:1002800007020D4B18684FF6FF0318400B4B034352
:1002900043EA0220084B186000BF25208DF80000BB
:1002A00001208DF803008DF801008DF802006846EA
:1002B00000F006F808BD00000CED00E00000FA05B3
:1002C00070B5002100230F22C47804B3154C2468B4
:1002D00004F4E064C4F5E064210AC1F10403CA40F7
:1002E000447804FA03F184781440214309010E4C48
:1002F0000678A155047804F01F050124AC40057868
:100300006D11AD0005F1E025C5F8004109E0047864
:1003100004F01F050124AC40044D0678761145F821
:10032000264070BD0CED00E000E400E080E100E05C
:1003300070B500240EE00021204600F0E6F800250C
:1003400004E0002000F002F9681CC5B2802DF8DB43
:10035000601CC4B2082CEEDB70BD000008B50121A2
:10036000082000F005F914208DF8030003208DF813
:1003700002004FF48070ADF8000069460A48FFF7AC
:10038000E6FE4FF40070ADF8000069460648FFF73E
:10039000DEFE012211020448FFF764FF0122510230
:1003A0000148FFF75FFF08BD000C014070B505462E
:1003B000002415E08020204100EA05024FF400717E
:1003C0000E48FFF74FFF012211020C48FFF74AFFCA
:1003D00000224FF480710948FFF744FF601CC4B24B
:1003E000082CE7DB012211020448FFF73BFF002243
:1003F0004FF480710148FFF735FF70BD000C0140DC
:1004000010B5012251020A48FFF72CFF0122110208
:100410000748FFF727FF00224FF400710448FFF759
:1004200021FF00224FF480710148FFF71BFF10BD30
:10043000000C014010B500224FF400710648FFF790
:1004400011FF012211020448FFF70CFF01225102A3
:100450000148FFF707FF10BD000C014070B50024F4
:1004600006E0002500E06D1CB5F57A7FFBD3641C27
:10047000B4F57A7FF5D3FFF771FFAE2000F056F8A0
:10048000D52000F053F8802000F050F8A82000F0AC
:100490004DF83F2000F04AF8D32000F047F8002044
:1004A00000F044F8402000F041F8A12000F03EF8B0
:1004B000C82000F03BF8DA2000F038F8122000F0F5
:1004C00035F8812000F032F8CF2000F02FF8D92045
:1004D00000F02CF8F12000F029F8DB2000F026F8DD
:1004E000302000F023F8A42000F020F8A62000F02F
:1004F0001DF88D2000F01AF8142000F017F8AF2036
:1005000000F014F8FFF714FF70BD70B505460C46F7
:1005100045F0B00000F00AF8102141EA141000F094
:1005200005F804F00F0000F001F870BD10B50446A6
:10053000FFF766FF7820FFF739FF0020FFF736FF4F
:100540002046FFF733FFFFF775FF10BD10B50446D7
:10055000FFF756FF7820FFF729FF4020FFF726FF1F
:100560002046FFF723FFFFF765FF10BD704700002F
:1005700029B1064A92690243044B9A6104E0034A96
:1005800092698243014B9A6170470000001002405B
:1005900030B500210022002400232D4D6D6805F0A8
:1005A0000C0121B1042905D0082923D105E0294DEA
:1005B000056022E0274D05601FE0254D6D6805F4BC
:1005C0007012234D6D6805F48034022505EB9242CC
:1005D0001CB9214D554305600BE01D4D6D6805F4B8
:1005E00000351DB11C4D5543056002E0194D5543C2
:1005F000056002E0174D056000BF00BF144D6D6837
:1006000005F0F0010909154D6B5C0568DD4045609A
:100610000F4D6D6805F4E061090A104D6B5C45688B
:10062000DD4085600A4D6D6805F46051C90A0B4DC7
:100630006B5C4568DD40C560054D6D6805F4404163
:10064000890B074D6B5CC568B5FBF3F5056130BDE3
:100650000010024000127A0000093D000000002056
:10066000100000207047000000B585B00121042073
:10067000FFF77EFF01218803FFF77AFF4FF4007038
:10068000ADF8100018208DF8130003208DF812002B
:1006900004A91948FFF75BFD4FF48060ADF8100026
:1006A00004208DF8130003208DF8120004A91248CD
:1006B000FFF74DFD4FF4165000900020ADF80C00F0
:1006C0000C20ADF80A000020ADF80800ADF80600D7
:1006D000ADF804006946094800F054F9012240F2DF
:1006E0002551064800F028F9FFF7C6FD012103480F
:1006F00000F009F905B000BD0008014000380140D4
:1007000010B500F001F810BD0CB50020019000906C
:100710003348006840F480303149086000BF3048F9
:10072000006800F4003000900198401C019000988F
:1007300018B90198B0F5A06FF1D12948006800F40C
:10074000003010B10120009001E0002000900098DE
:10075000012843D12348006840F010002149086077
:100760000846006820F0030008600846006840F072
:10077000020008601A484068194948600846406805
:1007800048600846406840F4806048600846406819
:1007900020F47C1048600846406840F4E810486047
:1007A0000846006840F08070086000BF0C48006890
:1007B00000F000700028F9D00948406820F00300DC
:1007C000074948600846406840F00200486000BFA2
:1007D0000348406800F00C000828F9D10CBD000067
:1007E00000100240002002407047000010B513487E
:1007F000006840F00100114908600846406810494F
:1008000008400E494860084600680E4908400B49F8
:1008100008600846006820F48020086008464068A8
:1008200020F4FE0048604FF41F008860FFF768FF67
:100830004FF000600449086010BD00000010024045
:100840000000FFF8FFFFF6FE08ED00E010B540F2F3
:100850002551204800F063F801283AD11D4800F0E6
:10086000FDF8C4B21C48007828B9402C2BD10120D7
:100870001949087027E018480078012812D10D2C7A
:1008800006D10220144908700020144908701AE0AB
:10089000134812490978445410480078401C0F4905
:1008A000087010E00C48007802280CD10A2C0AD1FC
:1008B00000200949087000210948084A127881542B
:1008C00001200849087040F22551024800F00CF858
:1008D00000BF10BD003801401500002016000020A8
:1008E000180000201400002010B50022002340F65C
:1008F0006A14A14200D100BF0A1201249440A3B29D
:10090000DC43048010BD21B1828942F4005282810F
:1009100004E082894DF6FF731A40828170470246D7
:100920000020B1F5007F00D100BF13880B400BB150
:10093000012000E000207047F0B5034600240026A7
:100940000025002040F66A17B94200D100BF1846C2
:10095000C1F3421401F01F06012707FA06F5012C26
:1009600001D10C3004E0022C01D1103000E0143031
:100970001AB107682F43076002E00768AF430760BA
:10098000F0BD00002DE9F04786B005460E46002474
:10099000A24600BFA1460027B08900B100BF2F4684
:1009A0002C8A4CF6FF700440F08804432C82AC89FA
:1009B0004EF6F3100440B08831890843718908432A
:1009C0000443AC81AC8A4FF6FF400440B089044335
:1009D000AC8201A8FFF7DCFD1F48874202D1DDF899
:1009E00010A001E0DDF80CA0A88900F4004040B19F
:1009F0000AEBCA0000EB0A1031684900B0FBF1F8BD
:100A000007E00AEBCA0000EB0A1031688900B0FB6E
:100A1000F1F86420B8FBF0F004012009642101FB27
:100A20001089A88900F4004040B1322000EBC900D1
:100A3000B0FBF1F000F00700044308E0322000EBC7
:100A400009106421B0FBF1F000F00F0004432C8189
:100A500006B0BDE8F08700000038014001468888F4
:100A6000C0F30800704700BFFEE702E008C8121F8D
:100A700008C1002AFAD170477047002001E001C187
:100A8000121F002AFBD17047FFF7E8FCFFF7ECFDCF
:100A900000BFFEE7B40A00080000002018000000B4
:100AA0006A0A0008CC0A0008180000206804000048
:100AB0007A0A000800000000010203040102030496
:0C0AC000060708090204060800000000F8
:04000005080000ED02
:00000001FF
